{
  "_format": "hh-sol-artifact-1",
  "contractName": "SimpleMock",
  "sourceName": "contracts/TestHelpers/SimpleMock.sol",
  "abi": [
    {
      "inputs": [
        {
          "internalType": "address",
          "name": "_token0",
          "type": "address"
        },
        {
          "internalType": "address",
          "name": "_token1",
          "type": "address"
        },
        {
          "internalType": "uint256",
          "name": "_amount0",
          "type": "uint256"
        },
        {
          "internalType": "uint256",
          "name": "_amount1",
          "type": "uint256"
        }
      ],
      "name": "swapTokens",
      "outputs": [],
      "stateMutability": "nonpayable",
      "type": "function"
    }
  ],
  "bytecode": "0x608060405234801561001057600080fd5b50610349806100206000396000f3fe608060405234801561001057600080fd5b506004361061002b5760003560e01c80638e18cdfc14610030575b600080fd5b61004a6004803603810190610045919061015c565b61004c565b005b818473ffffffffffffffffffffffffffffffffffffffff166370a08231336040518263ffffffff1660e01b8152600401610086919061025d565b60206040518083038186803b15801561009e57600080fd5b505afa1580156100b2573d6000803e3d6000fd5b505050506040513d601f19601f820116820180604052508101906100d691906101bf565b1015610117576040517f08c379a000000000000000000000000000000000000000000000000000000000815260040161010e90610278565b60405180910390fd5b50505050565b60008135905061012c816102e5565b92915050565b600081359050610141816102fc565b92915050565b600081519050610156816102fc565b92915050565b6000806000806080858703121561017257600080fd5b60006101808782880161011d565b94505060206101918782880161011d565b93505060406101a287828801610132565b92505060606101b387828801610132565b91505092959194509250565b6000602082840312156101d157600080fd5b60006101df84828501610147565b91505092915050565b6101f1816102a9565b82525050565b6000610204602183610298565b91507f53656e64657220646f6573206e6f74206f776e20656e6f75676820746f6b656e60008301527f73000000000000000000000000000000000000000000000000000000000000006020830152604082019050919050565b600060208201905061027260008301846101e8565b92915050565b60006020820190508181036000830152610291816101f7565b9050919050565b600082825260208201905092915050565b60006102b4826102bb565b9050919050565b600073ffffffffffffffffffffffffffffffffffffffff82169050919050565b6000819050919050565b6102ee816102a9565b81146102f957600080fd5b50565b610305816102db565b811461031057600080fd5b5056fea2646970667358221220455e7ace6116e511c53c29ac9fdda79a29d152094b5eabe808e258731892bf7564736f6c63430008000033",
  "linkReferences": {},
  "deployedLinkReferences": {}
}