{
  "_format": "hh-sol-artifact-1",
  "contractName": "ModifiedErc721",
  "sourceName": "contracts/maps/ModifiedErc721.sol",
  "abi": [
    {
      "inputs": [
        {
          "internalType": "string",
          "name": "_name",
          "type": "string"
        },
        {
          "internalType": "string",
          "name": "_symbol",
          "type": "string"
        }
      ],
      "stateMutability": "nonpayable",
      "type": "constructor"
    },
    {
      "anonymous": false,
      "inputs": [
        {
          "indexed": true,
          "internalType": "address",
          "name": "owner",
          "type": "address"
        },
        {
          "indexed": true,
          "internalType": "address",
          "name": "approved",
          "type": "address"
        },
        {
          "indexed": true,
          "internalType": "uint256",
          "name": "tokenId",
          "type": "uint256"
        }
      ],
      "name": "Approval",
      "type": "event"
    },
    {
      "anonymous": false,
      "inputs": [
        {
          "indexed": true,
          "internalType": "address",
          "name": "owner",
          "type": "address"
        },
        {
          "indexed": true,
          "internalType": "address",
          "name": "operator",
          "type": "address"
        },
        {
          "indexed": false,
          "internalType": "bool",
          "name": "approved",
          "type": "bool"
        }
      ],
      "name": "ApprovalForAll",
      "type": "event"
    },
    {
      "anonymous": false,
      "inputs": [
        {
          "indexed": true,
          "internalType": "address",
          "name": "from",
          "type": "address"
        },
        {
          "indexed": true,
          "internalType": "address",
          "name": "to",
          "type": "address"
        },
        {
          "indexed": true,
          "internalType": "uint256",
          "name": "tokenId",
          "type": "uint256"
        }
      ],
      "name": "Transfer",
      "type": "event"
    },
    {
      "inputs": [
        {
          "internalType": "address",
          "name": "to",
          "type": "address"
        },
        {
          "internalType": "uint256",
          "name": "tokenId",
          "type": "uint256"
        }
      ],
      "name": "approve",
      "outputs": [],
      "stateMutability": "nonpayable",
      "type": "function"
    },
    {
      "inputs": [
        {
          "internalType": "address",
          "name": "owner",
          "type": "address"
        }
      ],
      "name": "balanceOf",
      "outputs": [
        {
          "internalType": "uint256",
          "name": "",
          "type": "uint256"
        }
      ],
      "stateMutability": "view",
      "type": "function"
    },
    {
      "inputs": [
        {
          "internalType": "address",
          "name": "_owner",
          "type": "address"
        },
        {
          "internalType": "bytes32",
          "name": "_type",
          "type": "bytes32"
        }
      ],
      "name": "balanceOfType",
      "outputs": [
        {
          "internalType": "uint256",
          "name": "",
          "type": "uint256"
        }
      ],
      "stateMutability": "view",
      "type": "function"
    },
    {
      "inputs": [
        {
          "internalType": "uint256",
          "name": "tokenId",
          "type": "uint256"
        }
      ],
      "name": "getApproved",
      "outputs": [
        {
          "internalType": "address",
          "name": "",
          "type": "address"
        }
      ],
      "stateMutability": "view",
      "type": "function"
    },
    {
      "inputs": [
        {
          "internalType": "uint256",
          "name": "_tokenID",
          "type": "uint256"
        }
      ],
      "name": "getTokenType",
      "outputs": [
        {
          "internalType": "bytes32",
          "name": "",
          "type": "bytes32"
        }
      ],
      "stateMutability": "view",
      "type": "function"
    },
    {
      "inputs": [
        {
          "internalType": "address",
          "name": "owner",
          "type": "address"
        },
        {
          "internalType": "address",
          "name": "operator",
          "type": "address"
        }
      ],
      "name": "isApprovedForAll",
      "outputs": [
        {
          "internalType": "bool",
          "name": "",
          "type": "bool"
        }
      ],
      "stateMutability": "view",
      "type": "function"
    },
    {
      "inputs": [],
      "name": "name",
      "outputs": [
        {
          "internalType": "string",
          "name": "",
          "type": "string"
        }
      ],
      "stateMutability": "view",
      "type": "function"
    },
    {
      "inputs": [
        {
          "internalType": "uint256",
          "name": "tokenId",
          "type": "uint256"
        }
      ],
      "name": "ownerOf",
      "outputs": [
        {
          "internalType": "address",
          "name": "",
          "type": "address"
        }
      ],
      "stateMutability": "view",
      "type": "function"
    },
    {
      "inputs": [
        {
          "internalType": "address",
          "name": "from",
          "type": "address"
        },
        {
          "internalType": "address",
          "name": "to",
          "type": "address"
        },
        {
          "internalType": "uint256",
          "name": "tokenId",
          "type": "uint256"
        }
      ],
      "name": "safeTransferFrom",
      "outputs": [],
      "stateMutability": "nonpayable",
      "type": "function"
    },
    {
      "inputs": [
        {
          "internalType": "address",
          "name": "from",
          "type": "address"
        },
        {
          "internalType": "address",
          "name": "to",
          "type": "address"
        },
        {
          "internalType": "uint256",
          "name": "tokenId",
          "type": "uint256"
        },
        {
          "internalType": "bytes",
          "name": "_data",
          "type": "bytes"
        }
      ],
      "name": "safeTransferFrom",
      "outputs": [],
      "stateMutability": "nonpayable",
      "type": "function"
    },
    {
      "inputs": [
        {
          "internalType": "address",
          "name": "operator",
          "type": "address"
        },
        {
          "internalType": "bool",
          "name": "approved",
          "type": "bool"
        }
      ],
      "name": "setApprovalForAll",
      "outputs": [],
      "stateMutability": "nonpayable",
      "type": "function"
    },
    {
      "inputs": [
        {
          "internalType": "bytes4",
          "name": "interfaceId",
          "type": "bytes4"
        }
      ],
      "name": "supportsInterface",
      "outputs": [
        {
          "internalType": "bool",
          "name": "",
          "type": "bool"
        }
      ],
      "stateMutability": "view",
      "type": "function"
    },
    {
      "inputs": [],
      "name": "symbol",
      "outputs": [
        {
          "internalType": "string",
          "name": "",
          "type": "string"
        }
      ],
      "stateMutability": "view",
      "type": "function"
    },
    {
      "inputs": [
        {
          "internalType": "uint256",
          "name": "tokenId",
          "type": "uint256"
        }
      ],
      "name": "tokenURI",
      "outputs": [
        {
          "internalType": "string",
          "name": "",
          "type": "string"
        }
      ],
      "stateMutability": "view",
      "type": "function"
    },
    {
      "inputs": [
        {
          "internalType": "address",
          "name": "from",
          "type": "address"
        },
        {
          "internalType": "address",
          "name": "to",
          "type": "address"
        },
        {
          "internalType": "uint256",
          "name": "tokenId",
          "type": "uint256"
        }
      ],
      "name": "transferFrom",
      "outputs": [],
      "stateMutability": "nonpayable",
      "type": "function"
    }
  ],
  "bytecode": "0x60806040523480156200001157600080fd5b5060405162002b3338038062002b33833981810160405281019062000037919062000193565b81600090805190602001906200004f92919062000071565b5080600190805190602001906200006892919062000071565b50505062000337565b8280546200007f90620002a3565b90600052602060002090601f016020900481019282620000a35760008555620000ef565b82601f10620000be57805160ff1916838001178555620000ef565b82800160010185558215620000ef579182015b82811115620000ee578251825591602001919060010190620000d1565b5b509050620000fe919062000102565b5090565b5b808211156200011d57600081600090555060010162000103565b5090565b60006200013862000132846200023a565b62000206565b9050828152602081018484840111156200015157600080fd5b6200015e8482856200026d565b509392505050565b600082601f8301126200017857600080fd5b81516200018a84826020860162000121565b91505092915050565b60008060408385031215620001a757600080fd5b600083015167ffffffffffffffff811115620001c257600080fd5b620001d08582860162000166565b925050602083015167ffffffffffffffff811115620001ee57600080fd5b620001fc8582860162000166565b9150509250929050565b6000604051905081810181811067ffffffffffffffff8211171562000230576200022f62000308565b5b8060405250919050565b600067ffffffffffffffff82111562000258576200025762000308565b5b601f19601f8301169050602081019050919050565b60005b838110156200028d57808201518184015260208101905062000270565b838111156200029d576000848401525b50505050565b60006002820490506001821680620002bc57607f821691505b60208210811415620002d357620002d2620002d9565b5b50919050565b7f4e487b7100000000000000000000000000000000000000000000000000000000600052602260045260246000fd5b7f4e487b7100000000000000000000000000000000000000000000000000000000600052604160045260246000fd5b6127ec80620003476000396000f3fe608060405234801561001057600080fd5b50600436106100f55760003560e01c80636352211e11610097578063a22cb46511610066578063a22cb465146102aa578063b88d4fde146102c6578063c87b56dd146102e2578063e985e9c514610312576100f5565b80636352211e146101fc57806370a082311461022c57806376aed2e11461025c57806395d89b411461028c576100f5565b8063095ea7b3116100d3578063095ea7b31461017857806313f3d8a41461019457806323b872dd146101c457806342842e0e146101e0576100f5565b806301ffc9a7146100fa57806306fdde031461012a578063081812fc14610148575b600080fd5b610114600480360381019061010f9190611b31565b610342565b60405161012191906121b8565b60405180910390f35b610132610424565b60405161013f91906121ee565b60405180910390f35b610162600480360381019061015d9190611b83565b6104b6565b60405161016f9190612151565b60405180910390f35b610192600480360381019061018d9190611af5565b61053b565b005b6101ae60048036038101906101a99190611ab9565b6106d3565b6040516101bb9190612390565b60405180910390f35b6101de60048036038101906101d991906119b3565b61072e565b005b6101fa60048036038101906101f591906119b3565b61078e565b005b61021660048036038101906102119190611b83565b6107ae565b6040516102239190612151565b60405180910390f35b61024660048036038101906102419190611925565b610860565b6040516102539190612390565b60405180910390f35b61027660048036038101906102719190611b83565b61092c565b60405161028391906121d3565b60405180910390f35b610294610949565b6040516102a191906121ee565b60405180910390f35b6102c460048036038101906102bf9190611a7d565b6109db565b005b6102e060048036038101906102db9190611a02565b610b5c565b005b6102fc60048036038101906102f79190611b83565b610bbe565b60405161030991906121ee565b60405180910390f35b61032c60048036038101906103279190611977565b610c65565b60405161033991906121b8565b60405180910390f35b60007f80ac58cd000000000000000000000000000000000000000000000000000000007bffffffffffffffffffffffffffffffffffffffffffffffffffffffff1916827bffffffffffffffffffffffffffffffffffffffffffffffffffffffff1916148061040d57507f5b5e139f000000000000000000000000000000000000000000000000000000007bffffffffffffffffffffffffffffffffffffffffffffffffffffffff1916827bffffffffffffffffffffffffffffffffffffffffffffffffffffffff1916145b8061041d575061041c82610cf9565b5b9050919050565b606060008054610433906125ca565b80601f016020809104026020016040519081016040528092919081815260200182805461045f906125ca565b80156104ac5780601f10610481576101008083540402835291602001916104ac565b820191906000526020600020905b81548152906001019060200180831161048f57829003601f168201915b5050505050905090565b60006104c182610d63565b610500576040517f08c379a00000000000000000000000000000000000000000000000000000000081526004016104f7906122f0565b60405180910390fd5b6005600083815260200190815260200160002060009054906101000a900473ffffffffffffffffffffffffffffffffffffffff169050919050565b60003073ffffffffffffffffffffffffffffffffffffffff16636352211e836040518263ffffffff1660e01b81526004016105769190612390565b60206040518083038186803b15801561058e57600080fd5b505afa1580156105a2573d6000803e3d6000fd5b505050506040513d601f19601f820116820180604052508101906105c6919061194e565b90508073ffffffffffffffffffffffffffffffffffffffff168373ffffffffffffffffffffffffffffffffffffffff161415610637576040517f08c379a000000000000000000000000000000000000000000000000000000000815260040161062e90612350565b60405180910390fd5b8073ffffffffffffffffffffffffffffffffffffffff16610656610dcf565b73ffffffffffffffffffffffffffffffffffffffff16148061068557506106848161067f610dcf565b610c65565b5b6106c4576040517f08c379a00000000000000000000000000000000000000000000000000000000081526004016106bb90612290565b60405180910390fd5b6106ce8383610dd7565b505050565b6000600460008473ffffffffffffffffffffffffffffffffffffffff1673ffffffffffffffffffffffffffffffffffffffff168152602001908152602001600020600083815260200190815260200160002054905092915050565b61073f610739610dcf565b82610f10565b61077e576040517f08c379a000000000000000000000000000000000000000000000000000000000815260040161077590612370565b60405180910390fd5b61078983838361106e565b505050565b6107a983838360405180602001604052806000815250610b5c565b505050565b6000806002600084815260200190815260200160002060009054906101000a900473ffffffffffffffffffffffffffffffffffffffff169050600073ffffffffffffffffffffffffffffffffffffffff168173ffffffffffffffffffffffffffffffffffffffff161415610857576040517f08c379a000000000000000000000000000000000000000000000000000000000815260040161084e906122d0565b60405180910390fd5b80915050919050565b60008073ffffffffffffffffffffffffffffffffffffffff168273ffffffffffffffffffffffffffffffffffffffff1614156108d1576040517f08c379a00000000000000000000000000000000000000000000000000000000081526004016108c8906122b0565b60405180910390fd5b600460008373ffffffffffffffffffffffffffffffffffffffff1673ffffffffffffffffffffffffffffffffffffffff16815260200190815260200160002060008060001b8152602001908152602001600020549050919050565b600060036000838152602001908152602001600020549050919050565b606060018054610958906125ca565b80601f0160208091040260200160405190810160405280929190818152602001828054610984906125ca565b80156109d15780601f106109a6576101008083540402835291602001916109d1565b820191906000526020600020905b8154815290600101906020018083116109b457829003601f168201915b5050505050905090565b6109e3610dcf565b73ffffffffffffffffffffffffffffffffffffffff168273ffffffffffffffffffffffffffffffffffffffff161415610a51576040517f08c379a0000000000000000000000000000000000000000000000000000000008152600401610a4890612250565b60405180910390fd5b8060066000610a5e610dcf565b73ffffffffffffffffffffffffffffffffffffffff1673ffffffffffffffffffffffffffffffffffffffff16815260200190815260200160002060008473ffffffffffffffffffffffffffffffffffffffff1673ffffffffffffffffffffffffffffffffffffffff16815260200190815260200160002060006101000a81548160ff0219169083151502179055508173ffffffffffffffffffffffffffffffffffffffff16610b0b610dcf565b73ffffffffffffffffffffffffffffffffffffffff167f17307eab39ab6107e8899845ad3d59bd9653f200f220920489ca2b5937696c3183604051610b5091906121b8565b60405180910390a35050565b610b6d610b67610dcf565b83610f10565b610bac576040517f08c379a0000000000000000000000000000000000000000000000000000000008152600401610ba390612370565b60405180910390fd5b610bb88484848461145b565b50505050565b6060610bc982610d63565b610c08576040517f08c379a0000000000000000000000000000000000000000000000000000000008152600401610bff90612330565b60405180910390fd5b6000610c126114b7565b90506000815111610c325760405180602001604052806000815250610c5d565b80610c3c846114ce565b604051602001610c4d92919061212d565b6040516020818303038152906040525b915050919050565b6000600660008473ffffffffffffffffffffffffffffffffffffffff1673ffffffffffffffffffffffffffffffffffffffff16815260200190815260200160002060008373ffffffffffffffffffffffffffffffffffffffff1673ffffffffffffffffffffffffffffffffffffffff16815260200190815260200160002060009054906101000a900460ff16905092915050565b60007f01ffc9a7000000000000000000000000000000000000000000000000000000007bffffffffffffffffffffffffffffffffffffffffffffffffffffffff1916827bffffffffffffffffffffffffffffffffffffffffffffffffffffffff1916149050919050565b60008073ffffffffffffffffffffffffffffffffffffffff166002600084815260200190815260200160002060009054906101000a900473ffffffffffffffffffffffffffffffffffffffff1673ffffffffffffffffffffffffffffffffffffffff1614159050919050565b600033905090565b816005600083815260200190815260200160002060006101000a81548173ffffffffffffffffffffffffffffffffffffffff021916908373ffffffffffffffffffffffffffffffffffffffff160217905550808273ffffffffffffffffffffffffffffffffffffffff163073ffffffffffffffffffffffffffffffffffffffff16636352211e846040518263ffffffff1660e01b8152600401610e7a9190612390565b60206040518083038186803b158015610e9257600080fd5b505afa158015610ea6573d6000803e3d6000fd5b505050506040513d601f19601f82011682018060405250810190610eca919061194e565b73ffffffffffffffffffffffffffffffffffffffff167f8c5be1e5ebec7d5bd14f71427d1e84f3dd0314c0f7b2291e5b200ac8c7c3b92560405160405180910390a45050565b6000610f1b82610d63565b610f5a576040517f08c379a0000000000000000000000000000000000000000000000000000000008152600401610f5190612270565b60405180910390fd5b60003073ffffffffffffffffffffffffffffffffffffffff16636352211e846040518263ffffffff1660e01b8152600401610f959190612390565b60206040518083038186803b158015610fad57600080fd5b505afa158015610fc1573d6000803e3d6000fd5b505050506040513d601f19601f82011682018060405250810190610fe5919061194e565b90508073ffffffffffffffffffffffffffffffffffffffff168473ffffffffffffffffffffffffffffffffffffffff16148061105457508373ffffffffffffffffffffffffffffffffffffffff1661103c846104b6565b73ffffffffffffffffffffffffffffffffffffffff16145b8061106557506110648185610c65565b5b91505092915050565b8273ffffffffffffffffffffffffffffffffffffffff163073ffffffffffffffffffffffffffffffffffffffff16636352211e836040518263ffffffff1660e01b81526004016110be9190612390565b60206040518083038186803b1580156110d657600080fd5b505afa1580156110ea573d6000803e3d6000fd5b505050506040513d601f19601f8201168201806040525081019061110e919061194e565b73ffffffffffffffffffffffffffffffffffffffff1614611164576040517f08c379a000000000000000000000000000000000000000000000000000000000815260040161115b90612310565b60405180910390fd5b600073ffffffffffffffffffffffffffffffffffffffff168273ffffffffffffffffffffffffffffffffffffffff1614156111d4576040517f08c379a00000000000000000000000000000000000000000000000000000000081526004016111cb90612230565b60405180910390fd5b6111df83838361167b565b6111ea600082610dd7565b6000600360008381526020019081526020016000205490506001600460008673ffffffffffffffffffffffffffffffffffffffff1673ffffffffffffffffffffffffffffffffffffffff1681526020019081526020016000206000838152602001908152602001600020600082825461126391906124d6565b925050819055506001600460008673ffffffffffffffffffffffffffffffffffffffff1673ffffffffffffffffffffffffffffffffffffffff16815260200190815260200160002060008060001b815260200190815260200160002060008282546112ce91906124d6565b925050819055506001600460008573ffffffffffffffffffffffffffffffffffffffff1673ffffffffffffffffffffffffffffffffffffffff16815260200190815260200160002060008381526020019081526020016000206000828254611336919061244f565b925050819055506001600460008573ffffffffffffffffffffffffffffffffffffffff1673ffffffffffffffffffffffffffffffffffffffff16815260200190815260200160002060008060001b815260200190815260200160002060008282546113a1919061244f565b92505081905550826002600084815260200190815260200160002060006101000a81548173ffffffffffffffffffffffffffffffffffffffff021916908373ffffffffffffffffffffffffffffffffffffffff160217905550818373ffffffffffffffffffffffffffffffffffffffff168573ffffffffffffffffffffffffffffffffffffffff167fddf252ad1be2c89b69c2b068fc378daa952ba7f163c4a11628f55a4df523b3ef60405160405180910390a450505050565b61146684848461106e565b61147284848484611680565b6114b1576040517f08c379a00000000000000000000000000000000000000000000000000000000081526004016114a890612210565b60405180910390fd5b50505050565b606060405180602001604052806000815250905090565b60606000821415611516576040518060400160405280600181526020017f30000000000000000000000000000000000000000000000000000000000000008152509050611676565b600082905060005b60008214611548578080611531906125fc565b915050600a8261154191906124a5565b915061151e565b60008167ffffffffffffffff81111561158a577f4e487b7100000000000000000000000000000000000000000000000000000000600052604160045260246000fd5b6040519080825280601f01601f1916602001820160405280156115bc5781602001600182028036833780820191505090505b5090505b6000851461166f576001826115d591906124d6565b9150600a856115e49190612645565b60306115f0919061244f565b60f81b81838151811061162c577f4e487b7100000000000000000000000000000000000000000000000000000000600052603260045260246000fd5b60200101907effffffffffffffffffffffffffffffffffffffffffffffffffffffffffffff1916908160001a905350600a8561166891906124a5565b94506115c0565b8093505050505b919050565b505050565b60006116a18473ffffffffffffffffffffffffffffffffffffffff16611817565b1561180a578373ffffffffffffffffffffffffffffffffffffffff1663150b7a026116ca610dcf565b8786866040518563ffffffff1660e01b81526004016116ec949392919061216c565b602060405180830381600087803b15801561170657600080fd5b505af192505050801561173757506040513d601f19601f820116820180604052508101906117349190611b5a565b60015b6117ba573d8060008114611767576040519150601f19603f3d011682016040523d82523d6000602084013e61176c565b606091505b506000815114156117b2576040517f08c379a00000000000000000000000000000000000000000000000000000000081526004016117a990612210565b60405180910390fd5b805181602001fd5b63150b7a0260e01b7bffffffffffffffffffffffffffffffffffffffffffffffffffffffff1916817bffffffffffffffffffffffffffffffffffffffffffffffffffffffff19161491505061180f565b600190505b949350505050565b600080823b905060008111915050919050565b600061183d611838846123dc565b6123ab565b90508281526020810184848401111561185557600080fd5b611860848285612588565b509392505050565b60008135905061187781612743565b92915050565b60008151905061188c81612743565b92915050565b6000813590506118a18161275a565b92915050565b6000813590506118b681612771565b92915050565b6000813590506118cb81612788565b92915050565b6000815190506118e081612788565b92915050565b600082601f8301126118f757600080fd5b813561190784826020860161182a565b91505092915050565b60008135905061191f8161279f565b92915050565b60006020828403121561193757600080fd5b600061194584828501611868565b91505092915050565b60006020828403121561196057600080fd5b600061196e8482850161187d565b91505092915050565b6000806040838503121561198a57600080fd5b600061199885828601611868565b92505060206119a985828601611868565b9150509250929050565b6000806000606084860312156119c857600080fd5b60006119d686828701611868565b93505060206119e786828701611868565b92505060406119f886828701611910565b9150509250925092565b60008060008060808587031215611a1857600080fd5b6000611a2687828801611868565b9450506020611a3787828801611868565b9350506040611a4887828801611910565b925050606085013567ffffffffffffffff811115611a6557600080fd5b611a71878288016118e6565b91505092959194509250565b60008060408385031215611a9057600080fd5b6000611a9e85828601611868565b9250506020611aaf85828601611892565b9150509250929050565b60008060408385031215611acc57600080fd5b6000611ada85828601611868565b9250506020611aeb858286016118a7565b9150509250929050565b60008060408385031215611b0857600080fd5b6000611b1685828601611868565b9250506020611b2785828601611910565b9150509250929050565b600060208284031215611b4357600080fd5b6000611b51848285016118bc565b91505092915050565b600060208284031215611b6c57600080fd5b6000611b7a848285016118d1565b91505092915050565b600060208284031215611b9557600080fd5b6000611ba384828501611910565b91505092915050565b611bb58161250a565b82525050565b611bc48161251c565b82525050565b611bd381612528565b82525050565b6000611be48261240c565b611bee8185612422565b9350611bfe818560208601612597565b611c0781612732565b840191505092915050565b6000611c1d82612417565b611c278185612433565b9350611c37818560208601612597565b611c4081612732565b840191505092915050565b6000611c5682612417565b611c608185612444565b9350611c70818560208601612597565b80840191505092915050565b6000611c89603283612433565b91507f4552433732313a207472616e7366657220746f206e6f6e20455243373231526560008301527f63656976657220696d706c656d656e74657200000000000000000000000000006020830152604082019050919050565b6000611cef602483612433565b91507f4552433732313a207472616e7366657220746f20746865207a65726f2061646460008301527f72657373000000000000000000000000000000000000000000000000000000006020830152604082019050919050565b6000611d55601983612433565b91507f4552433732313a20617070726f766520746f2063616c6c6572000000000000006000830152602082019050919050565b6000611d95602c83612433565b91507f4552433732313a206f70657261746f7220717565727920666f72206e6f6e657860008301527f697374656e7420746f6b656e00000000000000000000000000000000000000006020830152604082019050919050565b6000611dfb603883612433565b91507f4552433732313a20617070726f76652063616c6c6572206973206e6f74206f7760008301527f6e6572206e6f7220617070726f76656420666f7220616c6c00000000000000006020830152604082019050919050565b6000611e61602a83612433565b91507f4552433732313a2062616c616e636520717565727920666f7220746865207a6560008301527f726f2061646472657373000000000000000000000000000000000000000000006020830152604082019050919050565b6000611ec7602983612433565b91507f4552433732313a206f776e657220717565727920666f72206e6f6e657869737460008301527f656e7420746f6b656e00000000000000000000000000000000000000000000006020830152604082019050919050565b6000611f2d602c83612433565b91507f4552433732313a20617070726f76656420717565727920666f72206e6f6e657860008301527f697374656e7420746f6b656e00000000000000000000000000000000000000006020830152604082019050919050565b6000611f93602983612433565b91507f4552433732313a207472616e73666572206f6620746f6b656e2074686174206960008301527f73206e6f74206f776e00000000000000000000000000000000000000000000006020830152604082019050919050565b6000611ff9602f83612433565b91507f4552433732314d657461646174613a2055524920717565727920666f72206e6f60008301527f6e6578697374656e7420746f6b656e00000000000000000000000000000000006020830152604082019050919050565b600061205f602183612433565b91507f4552433732313a20617070726f76616c20746f2063757272656e74206f776e6560008301527f72000000000000000000000000000000000000000000000000000000000000006020830152604082019050919050565b60006120c5603183612433565b91507f4552433732313a207472616e736665722063616c6c6572206973206e6f74206f60008301527f776e6572206e6f7220617070726f7665640000000000000000000000000000006020830152604082019050919050565b6121278161257e565b82525050565b60006121398285611c4b565b91506121458284611c4b565b91508190509392505050565b60006020820190506121666000830184611bac565b92915050565b60006080820190506121816000830187611bac565b61218e6020830186611bac565b61219b604083018561211e565b81810360608301526121ad8184611bd9565b905095945050505050565b60006020820190506121cd6000830184611bbb565b92915050565b60006020820190506121e86000830184611bca565b92915050565b600060208201905081810360008301526122088184611c12565b905092915050565b6000602082019050818103600083015261222981611c7c565b9050919050565b6000602082019050818103600083015261224981611ce2565b9050919050565b6000602082019050818103600083015261226981611d48565b9050919050565b6000602082019050818103600083015261228981611d88565b9050919050565b600060208201905081810360008301526122a981611dee565b9050919050565b600060208201905081810360008301526122c981611e54565b9050919050565b600060208201905081810360008301526122e981611eba565b9050919050565b6000602082019050818103600083015261230981611f20565b9050919050565b6000602082019050818103600083015261232981611f86565b9050919050565b6000602082019050818103600083015261234981611fec565b9050919050565b6000602082019050818103600083015261236981612052565b9050919050565b60006020820190508181036000830152612389816120b8565b9050919050565b60006020820190506123a5600083018461211e565b92915050565b6000604051905081810181811067ffffffffffffffff821117156123d2576123d1612703565b5b8060405250919050565b600067ffffffffffffffff8211156123f7576123f6612703565b5b601f19601f8301169050602081019050919050565b600081519050919050565b600081519050919050565b600082825260208201905092915050565b600082825260208201905092915050565b600081905092915050565b600061245a8261257e565b91506124658361257e565b9250827fffffffffffffffffffffffffffffffffffffffffffffffffffffffffffffffff0382111561249a57612499612676565b5b828201905092915050565b60006124b08261257e565b91506124bb8361257e565b9250826124cb576124ca6126a5565b5b828204905092915050565b60006124e18261257e565b91506124ec8361257e565b9250828210156124ff576124fe612676565b5b828203905092915050565b60006125158261255e565b9050919050565b60008115159050919050565b6000819050919050565b60007fffffffff0000000000000000000000000000000000000000000000000000000082169050919050565b600073ffffffffffffffffffffffffffffffffffffffff82169050919050565b6000819050919050565b82818337600083830152505050565b60005b838110156125b557808201518184015260208101905061259a565b838111156125c4576000848401525b50505050565b600060028204905060018216806125e257607f821691505b602082108114156125f6576125f56126d4565b5b50919050565b60006126078261257e565b91507fffffffffffffffffffffffffffffffffffffffffffffffffffffffffffffffff82141561263a57612639612676565b5b600182019050919050565b60006126508261257e565b915061265b8361257e565b92508261266b5761266a6126a5565b5b828206905092915050565b7f4e487b7100000000000000000000000000000000000000000000000000000000600052601160045260246000fd5b7f4e487b7100000000000000000000000000000000000000000000000000000000600052601260045260246000fd5b7f4e487b7100000000000000000000000000000000000000000000000000000000600052602260045260246000fd5b7f4e487b7100000000000000000000000000000000000000000000000000000000600052604160045260246000fd5b6000601f19601f8301169050919050565b61274c8161250a565b811461275757600080fd5b50565b6127638161251c565b811461276e57600080fd5b50565b61277a81612528565b811461278557600080fd5b50565b61279181612532565b811461279c57600080fd5b50565b6127a88161257e565b81146127b357600080fd5b5056fea2646970667358221220dcfe69581dcc05bef9f6e613e282f3437cea18d2c3f27f88d05bd0992b8b026164736f6c63430008000033",
  "linkReferences": {},
  "deployedLinkReferences": {}
}