{
  "_format": "hh-sol-artifact-1",
  "contractName": "TxBuidler",
  "sourceName": "contracts/TxBuidler.sol",
  "abi": [
    {
      "inputs": [
        {
          "internalType": "address",
          "name": "_wrapper",
          "type": "address"
        }
      ],
      "stateMutability": "nonpayable",
      "type": "constructor"
    },
    {
      "inputs": [
        {
          "internalType": "address",
          "name": "_wrapped",
          "type": "address"
        },
        {
          "internalType": "address[2]",
          "name": "_tokens",
          "type": "address[2]"
        },
        {
          "internalType": "uint256[2]",
          "name": "_amounts",
          "type": "uint256[2]"
        }
      ],
      "name": "callWrapper",
      "outputs": [],
      "stateMutability": "nonpayable",
      "type": "function"
    }
  ],
  "bytecode": "0x608060405234801561001057600080fd5b506040516103d83803806103d88339818101604052810190610032919061004d565b506100bf565b600081519050610047816100a8565b92915050565b60006020828403121561005f57600080fd5b600061006d84828501610038565b91505092915050565b600061008182610088565b9050919050565b600073ffffffffffffffffffffffffffffffffffffffff82169050919050565b6100b181610076565b81146100bc57600080fd5b50565b61030a806100ce6000396000f3fe608060405234801561001057600080fd5b506004361061002b5760003560e01c806324f053c914610030575b600080fd5b61004a6004803603810190610045919061010d565b61004c565b005b73__$e5e62b7718b792372effb1c78276ca74f8$__6306d324838484846040518463ffffffff1660e01b815260040161008793929190610201565b60006040518083038186803b15801561009f57600080fd5b505af41580156100b3573d6000803e3d6000fd5b50505050505050565b6000813590506100cb816102bd565b92915050565b6000819050826020600202820111156100e957600080fd5b92915050565b60008190508260206002028201111561010757600080fd5b92915050565b600080600060a0848603121561012257600080fd5b6000610130868287016100bc565b9350506020610141868287016100d1565b9250506060610152868287016100ef565b9150509250925092565b60006101688383610183565b60208301905092915050565b61017d8161027c565b82525050565b61018c8161027c565b82525050565b61019b81610242565b6101a5818461025a565b92506101b082610238565b8060005b838110156101e9576101c68284610265565b6101d0878261015c565b96506101db8361024d565b9250506001810190506101b4565b505050505050565b6101fd604083836102ae565b5050565b600060a0820190506102166000830186610174565b6102236020830185610192565b61023060608301846101f1565b949350505050565b6000819050919050565b600060029050919050565b6000602082019050919050565b600081905092915050565b600061027460208401846100bc565b905092915050565b60006102878261028e565b9050919050565b600073ffffffffffffffffffffffffffffffffffffffff82169050919050565b82818337600083830152505050565b6102c68161027c565b81146102d157600080fd5b5056fea2646970667358221220f954a2860e18a2c6fda9c586452cbb75219043cd7ca818e1a84447b8dc532a8864736f6c63430008000033",
  "linkReferences": {
    "contracts/Wrappers/TestWrapper.sol": {
      "TestWrapper": [
        {
          "length": 20,
          "start": 284
        }
      ]
    }
  },
  "deployedLinkReferences": {
    "contracts/Wrappers/TestWrapper.sol": {
      "TestWrapper": [
        {
          "length": 20,
          "start": 78
        }
      ]
    }
  }
}