{
  "_format": "hh-sol-artifact-1",
  "contractName": "TreasureMaps",
  "sourceName": "contracts/maps/TreasureMaps.sol",
  "abi": [
    {
      "inputs": [],
      "stateMutability": "nonpayable",
      "type": "constructor"
    },
    {
      "anonymous": false,
      "inputs": [
        {
          "indexed": true,
          "internalType": "address",
          "name": "owner",
          "type": "address"
        },
        {
          "indexed": true,
          "internalType": "address",
          "name": "approved",
          "type": "address"
        },
        {
          "indexed": true,
          "internalType": "uint256",
          "name": "tokenId",
          "type": "uint256"
        }
      ],
      "name": "Approval",
      "type": "event"
    },
    {
      "anonymous": false,
      "inputs": [
        {
          "indexed": true,
          "internalType": "address",
          "name": "owner",
          "type": "address"
        },
        {
          "indexed": true,
          "internalType": "address",
          "name": "operator",
          "type": "address"
        },
        {
          "indexed": false,
          "internalType": "bool",
          "name": "approved",
          "type": "bool"
        }
      ],
      "name": "ApprovalForAll",
      "type": "event"
    },
    {
      "anonymous": false,
      "inputs": [
        {
          "indexed": true,
          "internalType": "address",
          "name": "explorer",
          "type": "address"
        },
        {
          "indexed": true,
          "internalType": "uint256",
          "name": "mapID",
          "type": "uint256"
        }
      ],
      "name": "MapExplored",
      "type": "event"
    },
    {
      "anonymous": false,
      "inputs": [
        {
          "indexed": true,
          "internalType": "address",
          "name": "from",
          "type": "address"
        },
        {
          "indexed": true,
          "internalType": "address",
          "name": "to",
          "type": "address"
        },
        {
          "indexed": true,
          "internalType": "uint256",
          "name": "tokenId",
          "type": "uint256"
        }
      ],
      "name": "Transfer",
      "type": "event"
    },
    {
      "anonymous": false,
      "inputs": [
        {
          "indexed": true,
          "internalType": "address",
          "name": "creator",
          "type": "address"
        },
        {
          "indexed": true,
          "internalType": "uint256",
          "name": "mapID",
          "type": "uint256"
        },
        {
          "indexed": false,
          "internalType": "string",
          "name": "description",
          "type": "string"
        },
        {
          "indexed": false,
          "internalType": "address[]",
          "name": "callTargets",
          "type": "address[]"
        },
        {
          "indexed": false,
          "internalType": "bytes[]",
          "name": "callData",
          "type": "bytes[]"
        },
        {
          "indexed": false,
          "internalType": "uint256[]",
          "name": "callValues",
          "type": "uint256[]"
        }
      ],
      "name": "TreasureMapAdded",
      "type": "event"
    },
    {
      "inputs": [
        {
          "internalType": "address",
          "name": "to",
          "type": "address"
        },
        {
          "internalType": "uint256",
          "name": "tokenId",
          "type": "uint256"
        }
      ],
      "name": "approve",
      "outputs": [],
      "stateMutability": "nonpayable",
      "type": "function"
    },
    {
      "inputs": [
        {
          "internalType": "address",
          "name": "owner",
          "type": "address"
        }
      ],
      "name": "balanceOf",
      "outputs": [
        {
          "internalType": "uint256",
          "name": "",
          "type": "uint256"
        }
      ],
      "stateMutability": "view",
      "type": "function"
    },
    {
      "inputs": [
        {
          "internalType": "address",
          "name": "_owner",
          "type": "address"
        },
        {
          "internalType": "bytes32",
          "name": "_type",
          "type": "bytes32"
        }
      ],
      "name": "balanceOfType",
      "outputs": [
        {
          "internalType": "uint256",
          "name": "",
          "type": "uint256"
        }
      ],
      "stateMutability": "view",
      "type": "function"
    },
    {
      "inputs": [
        {
          "internalType": "string",
          "name": "_description",
          "type": "string"
        },
        {
          "internalType": "address[]",
          "name": "_targetAddr",
          "type": "address[]"
        },
        {
          "internalType": "string[]",
          "name": "_functionSig",
          "type": "string[]"
        },
        {
          "internalType": "bytes[]",
          "name": "_callData",
          "type": "bytes[]"
        },
        {
          "internalType": "uint256[]",
          "name": "_callValues",
          "type": "uint256[]"
        }
      ],
      "name": "createTreasure",
      "outputs": [
        {
          "internalType": "uint256",
          "name": "treasureMapID",
          "type": "uint256"
        },
        {
          "internalType": "uint256",
          "name": "coordinatesID",
          "type": "uint256"
        }
      ],
      "stateMutability": "nonpayable",
      "type": "function"
    },
    {
      "inputs": [
        {
          "internalType": "uint256",
          "name": "tokenId",
          "type": "uint256"
        }
      ],
      "name": "getApproved",
      "outputs": [
        {
          "internalType": "address",
          "name": "",
          "type": "address"
        }
      ],
      "stateMutability": "view",
      "type": "function"
    },
    {
      "inputs": [
        {
          "internalType": "uint256",
          "name": "_tokenID",
          "type": "uint256"
        }
      ],
      "name": "getTokenType",
      "outputs": [
        {
          "internalType": "bytes32",
          "name": "",
          "type": "bytes32"
        }
      ],
      "stateMutability": "view",
      "type": "function"
    },
    {
      "inputs": [
        {
          "internalType": "address",
          "name": "owner",
          "type": "address"
        },
        {
          "internalType": "address",
          "name": "operator",
          "type": "address"
        }
      ],
      "name": "isApprovedForAll",
      "outputs": [
        {
          "internalType": "bool",
          "name": "",
          "type": "bool"
        }
      ],
      "stateMutability": "view",
      "type": "function"
    },
    {
      "inputs": [],
      "name": "name",
      "outputs": [
        {
          "internalType": "string",
          "name": "",
          "type": "string"
        }
      ],
      "stateMutability": "view",
      "type": "function"
    },
    {
      "inputs": [
        {
          "internalType": "uint256",
          "name": "tokenId",
          "type": "uint256"
        }
      ],
      "name": "ownerOf",
      "outputs": [
        {
          "internalType": "address",
          "name": "",
          "type": "address"
        }
      ],
      "stateMutability": "view",
      "type": "function"
    },
    {
      "inputs": [
        {
          "internalType": "address",
          "name": "from",
          "type": "address"
        },
        {
          "internalType": "address",
          "name": "to",
          "type": "address"
        },
        {
          "internalType": "uint256",
          "name": "tokenId",
          "type": "uint256"
        }
      ],
      "name": "safeTransferFrom",
      "outputs": [],
      "stateMutability": "nonpayable",
      "type": "function"
    },
    {
      "inputs": [
        {
          "internalType": "address",
          "name": "from",
          "type": "address"
        },
        {
          "internalType": "address",
          "name": "to",
          "type": "address"
        },
        {
          "internalType": "uint256",
          "name": "tokenId",
          "type": "uint256"
        },
        {
          "internalType": "bytes",
          "name": "_data",
          "type": "bytes"
        }
      ],
      "name": "safeTransferFrom",
      "outputs": [],
      "stateMutability": "nonpayable",
      "type": "function"
    },
    {
      "inputs": [
        {
          "internalType": "address",
          "name": "operator",
          "type": "address"
        },
        {
          "internalType": "bool",
          "name": "approved",
          "type": "bool"
        }
      ],
      "name": "setApprovalForAll",
      "outputs": [],
      "stateMutability": "nonpayable",
      "type": "function"
    },
    {
      "inputs": [
        {
          "internalType": "bytes4",
          "name": "interfaceId",
          "type": "bytes4"
        }
      ],
      "name": "supportsInterface",
      "outputs": [
        {
          "internalType": "bool",
          "name": "",
          "type": "bool"
        }
      ],
      "stateMutability": "view",
      "type": "function"
    },
    {
      "inputs": [],
      "name": "symbol",
      "outputs": [
        {
          "internalType": "string",
          "name": "",
          "type": "string"
        }
      ],
      "stateMutability": "view",
      "type": "function"
    },
    {
      "inputs": [],
      "name": "tokenCount_",
      "outputs": [
        {
          "internalType": "uint256",
          "name": "",
          "type": "uint256"
        }
      ],
      "stateMutability": "view",
      "type": "function"
    },
    {
      "inputs": [
        {
          "internalType": "uint256",
          "name": "tokenId",
          "type": "uint256"
        }
      ],
      "name": "tokenURI",
      "outputs": [
        {
          "internalType": "string",
          "name": "",
          "type": "string"
        }
      ],
      "stateMutability": "view",
      "type": "function"
    },
    {
      "inputs": [
        {
          "internalType": "address",
          "name": "from",
          "type": "address"
        },
        {
          "internalType": "address",
          "name": "to",
          "type": "address"
        },
        {
          "internalType": "uint256",
          "name": "tokenId",
          "type": "uint256"
        }
      ],
      "name": "transferFrom",
      "outputs": [],
      "stateMutability": "nonpayable",
      "type": "function"
    },
    {
      "inputs": [
        {
          "internalType": "uint256",
          "name": "",
          "type": "uint256"
        }
      ],
      "name": "treasureCoordinates_",
      "outputs": [
        {
          "internalType": "uint256",
          "name": "callValueTotal",
          "type": "uint256"
        }
      ],
      "stateMutability": "view",
      "type": "function"
    },
    {
      "inputs": [
        {
          "internalType": "uint256",
          "name": "",
          "type": "uint256"
        }
      ],
      "name": "treasureMaps_",
      "outputs": [
        {
          "internalType": "address",
          "name": "creator",
          "type": "address"
        },
        {
          "internalType": "uint256",
          "name": "explores",
          "type": "uint256"
        }
      ],
      "stateMutability": "view",
      "type": "function"
    }
  ],
  "bytecode": "0x60806040523480156200001157600080fd5b506040518060400160405280600d81526020017f5472656173757265204d617073000000000000000000000000000000000000008152506040518060400160405280600481526020017f744d415000000000000000000000000000000000000000000000000000000000815250816000908051906020019062000096929190620000b8565b508060019080519060200190620000af929190620000b8565b505050620001cd565b828054620000c69062000168565b90600052602060002090601f016020900481019282620000ea576000855562000136565b82601f106200010557805160ff191683800117855562000136565b8280016001018555821562000136579182015b828111156200013557825182559160200191906001019062000118565b5b50905062000145919062000149565b5090565b5b80821115620001645760008160009055506001016200014a565b5090565b600060028204905060018216806200018157607f821691505b602082108114156200019857620001976200019e565b5b50919050565b7f4e487b7100000000000000000000000000000000000000000000000000000000600052602260045260246000fd5b61394580620001dd6000396000f3fe608060405234801561001057600080fd5b50600436106101215760003560e01c806370a08231116100ad578063af37e57811610071578063af37e57814610341578063b88d4fde14610371578063c582694f1461038d578063c87b56dd146103be578063e985e9c5146103ee57610121565b806370a082311461027657806376aed2e1146102a657806395d89b41146102d6578063a22cb465146102f4578063a6062e621461031057610121565b806313f3d8a4116100f457806313f3d8a4146101c057806323b872dd146101f0578063334701bf1461020c57806342842e0e1461022a5780636352211e1461024657610121565b806301ffc9a71461012657806306fdde0314610156578063081812fc14610174578063095ea7b3146101a4575b600080fd5b610140600480360381019061013b9190612901565b61041e565b60405161014d91906131b6565b60405180910390f35b61015e610500565b60405161016b91906131ec565b60405180910390f35b61018e60048036038101906101899190612a58565b610592565b60405161019b9190613126565b60405180910390f35b6101be60048036038101906101b991906128c5565b610617565b005b6101da60048036038101906101d59190612889565b6107af565b6040516101e7919061340e565b60405180910390f35b61020a60048036038101906102059190612783565b61080a565b005b61021461086a565b604051610221919061340e565b60405180910390f35b610244600480360381019061023f9190612783565b610870565b005b610260600480360381019061025b9190612a58565b610890565b60405161026d9190613126565b60405180910390f35b610290600480360381019061028b91906126f5565b610942565b60405161029d919061340e565b60405180910390f35b6102c060048036038101906102bb9190612a58565b610a0e565b6040516102cd91906131d1565b60405180910390f35b6102de610a2b565b6040516102eb91906131ec565b60405180910390f35b61030e6004803603810190610309919061284d565b610abd565b005b61032a60048036038101906103259190612953565b610c3e565b604051610338929190613429565b60405180910390f35b61035b60048036038101906103569190612a58565b610c6e565b604051610368919061340e565b60405180910390f35b61038b600480360381019061038691906127d2565b610c8c565b005b6103a760048036038101906103a29190612a58565b610cee565b6040516103b592919061318d565b60405180910390f35b6103d860048036038101906103d39190612a58565b610d32565b6040516103e591906131ec565b60405180910390f35b61040860048036038101906104039190612747565b610dd9565b60405161041591906131b6565b60405180910390f35b60007f80ac58cd000000000000000000000000000000000000000000000000000000007bffffffffffffffffffffffffffffffffffffffffffffffffffffffff1916827bffffffffffffffffffffffffffffffffffffffffffffffffffffffff191614806104e957507f5b5e139f000000000000000000000000000000000000000000000000000000007bffffffffffffffffffffffffffffffffffffffffffffffffffffffff1916827bffffffffffffffffffffffffffffffffffffffffffffffffffffffff1916145b806104f957506104f882610e6d565b5b9050919050565b60606000805461050f90613723565b80601f016020809104026020016040519081016040528092919081815260200182805461053b90613723565b80156105885780601f1061055d57610100808354040283529160200191610588565b820191906000526020600020905b81548152906001019060200180831161056b57829003601f168201915b5050505050905090565b600061059d82610ed7565b6105dc576040517f08c379a00000000000000000000000000000000000000000000000000000000081526004016105d39061334e565b60405180910390fd5b6005600083815260200190815260200160002060009054906101000a900473ffffffffffffffffffffffffffffffffffffffff169050919050565b60003073ffffffffffffffffffffffffffffffffffffffff16636352211e836040518263ffffffff1660e01b8152600401610652919061340e565b60206040518083038186803b15801561066a57600080fd5b505afa15801561067e573d6000803e3d6000fd5b505050506040513d601f19601f820116820180604052508101906106a2919061271e565b90508073ffffffffffffffffffffffffffffffffffffffff168373ffffffffffffffffffffffffffffffffffffffff161415610713576040517f08c379a000000000000000000000000000000000000000000000000000000000815260040161070a906133ae565b60405180910390fd5b8073ffffffffffffffffffffffffffffffffffffffff16610732610f43565b73ffffffffffffffffffffffffffffffffffffffff16148061076157506107608161075b610f43565b610dd9565b5b6107a0576040517f08c379a0000000000000000000000000000000000000000000000000000000008152600401610797906132ce565b60405180910390fd5b6107aa8383610f4b565b505050565b6000600460008473ffffffffffffffffffffffffffffffffffffffff1673ffffffffffffffffffffffffffffffffffffffff168152602001908152602001600020600083815260200190815260200160002054905092915050565b61081b610815610f43565b82611084565b61085a576040517f08c379a0000000000000000000000000000000000000000000000000000000008152600401610851906133ce565b60405180910390fd5b6108658383836111e2565b505050565b60075481565b61088b83838360405180602001604052806000815250610c8c565b505050565b6000806002600084815260200190815260200160002060009054906101000a900473ffffffffffffffffffffffffffffffffffffffff169050600073ffffffffffffffffffffffffffffffffffffffff168173ffffffffffffffffffffffffffffffffffffffff161415610939576040517f08c379a00000000000000000000000000000000000000000000000000000000081526004016109309061330e565b60405180910390fd5b80915050919050565b60008073ffffffffffffffffffffffffffffffffffffffff168273ffffffffffffffffffffffffffffffffffffffff1614156109b3576040517f08c379a00000000000000000000000000000000000000000000000000000000081526004016109aa906132ee565b60405180910390fd5b600460008373ffffffffffffffffffffffffffffffffffffffff1673ffffffffffffffffffffffffffffffffffffffff16815260200190815260200160002060008060001b8152602001908152602001600020549050919050565b600060036000838152602001908152602001600020549050919050565b606060018054610a3a90613723565b80601f0160208091040260200160405190810160405280929190818152602001828054610a6690613723565b8015610ab35780601f10610a8857610100808354040283529160200191610ab3565b820191906000526020600020905b815481529060010190602001808311610a9657829003601f168201915b5050505050905090565b610ac5610f43565b73ffffffffffffffffffffffffffffffffffffffff168273ffffffffffffffffffffffffffffffffffffffff161415610b33576040517f08c379a0000000000000000000000000000000000000000000000000000000008152600401610b2a9061326e565b60405180910390fd5b8060066000610b40610f43565b73ffffffffffffffffffffffffffffffffffffffff1673ffffffffffffffffffffffffffffffffffffffff16815260200190815260200160002060008473ffffffffffffffffffffffffffffffffffffffff1673ffffffffffffffffffffffffffffffffffffffff16815260200190815260200160002060006101000a81548160ff0219169083151502179055508173ffffffffffffffffffffffffffffffffffffffff16610bed610f43565b73ffffffffffffffffffffffffffffffffffffffff167f17307eab39ab6107e8899845ad3d59bd9653f200f220920489ca2b5937696c3183604051610c3291906131b6565b60405180910390a35050565b600080610c4e338b8b8b8b6115cf565b9150610c5d3387878787611792565b90509a509a98505050505050505050565b60096020528060005260406000206000915090508060000154905081565b610c9d610c97610f43565b83611084565b610cdc576040517f08c379a0000000000000000000000000000000000000000000000000000000008152600401610cd3906133ce565b60405180910390fd5b610ce884848484611966565b50505050565b60086020528060005260406000206000915090508060000160009054906101000a900473ffffffffffffffffffffffffffffffffffffffff16908060030154905082565b6060610d3d82610ed7565b610d7c576040517f08c379a0000000000000000000000000000000000000000000000000000000008152600401610d739061338e565b60405180910390fd5b6000610d866119c2565b90506000815111610da65760405180602001604052806000815250610dd1565b80610db0846119d9565b604051602001610dc1929190613102565b6040516020818303038152906040525b915050919050565b6000600660008473ffffffffffffffffffffffffffffffffffffffff1673ffffffffffffffffffffffffffffffffffffffff16815260200190815260200160002060008373ffffffffffffffffffffffffffffffffffffffff1673ffffffffffffffffffffffffffffffffffffffff16815260200190815260200160002060009054906101000a900460ff16905092915050565b60007f01ffc9a7000000000000000000000000000000000000000000000000000000007bffffffffffffffffffffffffffffffffffffffffffffffffffffffff1916827bffffffffffffffffffffffffffffffffffffffffffffffffffffffff1916149050919050565b60008073ffffffffffffffffffffffffffffffffffffffff166002600084815260200190815260200160002060009054906101000a900473ffffffffffffffffffffffffffffffffffffffff1673ffffffffffffffffffffffffffffffffffffffff1614159050919050565b600033905090565b816005600083815260200190815260200160002060006101000a81548173ffffffffffffffffffffffffffffffffffffffff021916908373ffffffffffffffffffffffffffffffffffffffff160217905550808273ffffffffffffffffffffffffffffffffffffffff163073ffffffffffffffffffffffffffffffffffffffff16636352211e846040518263ffffffff1660e01b8152600401610fee919061340e565b60206040518083038186803b15801561100657600080fd5b505afa15801561101a573d6000803e3d6000fd5b505050506040513d601f19601f8201168201806040525081019061103e919061271e565b73ffffffffffffffffffffffffffffffffffffffff167f8c5be1e5ebec7d5bd14f71427d1e84f3dd0314c0f7b2291e5b200ac8c7c3b92560405160405180910390a45050565b600061108f82610ed7565b6110ce576040517f08c379a00000000000000000000000000000000000000000000000000000000081526004016110c59061328e565b60405180910390fd5b60003073ffffffffffffffffffffffffffffffffffffffff16636352211e846040518263ffffffff1660e01b8152600401611109919061340e565b60206040518083038186803b15801561112157600080fd5b505afa158015611135573d6000803e3d6000fd5b505050506040513d601f19601f82011682018060405250810190611159919061271e565b90508073ffffffffffffffffffffffffffffffffffffffff168473ffffffffffffffffffffffffffffffffffffffff1614806111c857508373ffffffffffffffffffffffffffffffffffffffff166111b084610592565b73ffffffffffffffffffffffffffffffffffffffff16145b806111d957506111d88185610dd9565b5b91505092915050565b8273ffffffffffffffffffffffffffffffffffffffff163073ffffffffffffffffffffffffffffffffffffffff16636352211e836040518263ffffffff1660e01b8152600401611232919061340e565b60206040518083038186803b15801561124a57600080fd5b505afa15801561125e573d6000803e3d6000fd5b505050506040513d601f19601f82011682018060405250810190611282919061271e565b73ffffffffffffffffffffffffffffffffffffffff16146112d8576040517f08c379a00000000000000000000000000000000000000000000000000000000081526004016112cf9061336e565b60405180910390fd5b600073ffffffffffffffffffffffffffffffffffffffff168273ffffffffffffffffffffffffffffffffffffffff161415611348576040517f08c379a000000000000000000000000000000000000000000000000000000000815260040161133f9061324e565b60405180910390fd5b611353838383611b86565b61135e600082610f4b565b6000600360008381526020019081526020016000205490506001600460008673ffffffffffffffffffffffffffffffffffffffff1673ffffffffffffffffffffffffffffffffffffffff168152602001908152602001600020600083815260200190815260200160002060008282546113d79190613605565b925050819055506001600460008673ffffffffffffffffffffffffffffffffffffffff1673ffffffffffffffffffffffffffffffffffffffff16815260200190815260200160002060008060001b815260200190815260200160002060008282546114429190613605565b925050819055506001600460008573ffffffffffffffffffffffffffffffffffffffff1673ffffffffffffffffffffffffffffffffffffffff168152602001908152602001600020600083815260200190815260200160002060008282546114aa919061357e565b925050819055506001600460008573ffffffffffffffffffffffffffffffffffffffff1673ffffffffffffffffffffffffffffffffffffffff16815260200190815260200160002060008060001b81526020019081526020016000206000828254611515919061357e565b92505081905550826002600084815260200190815260200160002060006101000a81548173ffffffffffffffffffffffffffffffffffffffff021916908373ffffffffffffffffffffffffffffffffffffffff160217905550818373ffffffffffffffffffffffffffffffffffffffff168573ffffffffffffffffffffffffffffffffffffffff167fddf252ad1be2c89b69c2b068fc378daa952ba7f163c4a11628f55a4df523b3ef60405160405180910390a450505050565b6000828290508585905014611619576040517f08c379a0000000000000000000000000000000000000000000000000000000008152600401611610906133ee565b60405180910390fd5b60016007600082825461162c919061357e565b92505081905550600754905060405180608001604052808773ffffffffffffffffffffffffffffffffffffffff168152602001868680806020026020016040519081016040528093929190818152602001838360200280828437600081840152601f19601f8201169050808301925050505050505081526020018484906116b391906136cc565b815260200160008152506008600083815260200190815260200160002060008201518160000160006101000a81548173ffffffffffffffffffffffffffffffffffffffff021916908373ffffffffffffffffffffffffffffffffffffffff1602179055506020820151816001019080519060200190611733929190611fde565b506040820151816002019080519060200190611750929190612068565b50606082015181600301559050506117897fefdeffb2c751813ac9e5f1c0f97cdfe74cc23f992dd142a5fb2b0868d3816e408783611b8b565b95945050505050565b60008282905085859050146117dc576040517f08c379a00000000000000000000000000000000000000000000000000000000081526004016117d3906133ee565b60405180910390fd5b6001600760008282546117ef919061357e565b925050819055506007549050600080600090505b8686905081101561186e57848482818110611847577f4e487b7100000000000000000000000000000000000000000000000000000000600052603260045260246000fd5b9050602002013582611859919061357e565b9150808061186690613755565b915050611803565b50604051806060016040528082815260200187879061188d91906136b7565b8152602001858580806020026020016040519081016040528093929190818152602001838360200280828437600081840152601f19601f82011690508083019250505050505050815250600960008481526020019081526020016000206000820151816000015560208201518160010190805190602001906119109291906120c8565b50604082015181600201908051906020019061192d929190612128565b5090505061195c7f55d2d27e31c4cb7b29e0a26c4da29beed88162ab503267550adc2b08511eb9f18884611b8b565b5095945050505050565b6119718484846111e2565b61197d84848484611e34565b6119bc576040517f08c379a00000000000000000000000000000000000000000000000000000000081526004016119b39061320e565b60405180910390fd5b50505050565b606060405180602001604052806000815250905090565b60606000821415611a21576040518060400160405280600181526020017f30000000000000000000000000000000000000000000000000000000000000008152509050611b81565b600082905060005b60008214611a53578080611a3c90613755565b915050600a82611a4c91906135d4565b9150611a29565b60008167ffffffffffffffff811115611a95577f4e487b7100000000000000000000000000000000000000000000000000000000600052604160045260246000fd5b6040519080825280601f01601f191660200182016040528015611ac75781602001600182028036833780820191505090505b5090505b60008514611b7a57600182611ae09190613605565b9150600a85611aef919061379e565b6030611afb919061357e565b60f81b818381518110611b37577f4e487b7100000000000000000000000000000000000000000000000000000000600052603260045260246000fd5b60200101907effffffffffffffffffffffffffffffffffffffffffffffffffffffffffffff1916908160001a905350600a85611b7391906135d4565b9450611acb565b8093505050505b919050565b505050565b600073ffffffffffffffffffffffffffffffffffffffff168273ffffffffffffffffffffffffffffffffffffffff161415611bfb576040517f08c379a0000000000000000000000000000000000000000000000000000000008152600401611bf29061332e565b60405180910390fd5b6000801b831415611c41576040517f08c379a0000000000000000000000000000000000000000000000000000000008152600401611c38906132ae565b60405180910390fd5b611c4a81610ed7565b15611c8a576040517f08c379a0000000000000000000000000000000000000000000000000000000008152600401611c819061322e565b60405180910390fd5b611c9660008383611b86565b6001600460008473ffffffffffffffffffffffffffffffffffffffff1673ffffffffffffffffffffffffffffffffffffffff16815260200190815260200160002060008060001b81526020019081526020016000206000828254611cfa919061357e565b925050819055506001600460008473ffffffffffffffffffffffffffffffffffffffff1673ffffffffffffffffffffffffffffffffffffffff16815260200190815260200160002060008581526020019081526020016000206000828254611d62919061357e565b92505081905550826003600083815260200190815260200160002081905550816002600083815260200190815260200160002060006101000a81548173ffffffffffffffffffffffffffffffffffffffff021916908373ffffffffffffffffffffffffffffffffffffffff160217905550808273ffffffffffffffffffffffffffffffffffffffff16600073ffffffffffffffffffffffffffffffffffffffff167fddf252ad1be2c89b69c2b068fc378daa952ba7f163c4a11628f55a4df523b3ef60405160405180910390a4505050565b6000611e558473ffffffffffffffffffffffffffffffffffffffff16611fcb565b15611fbe578373ffffffffffffffffffffffffffffffffffffffff1663150b7a02611e7e610f43565b8786866040518563ffffffff1660e01b8152600401611ea09493929190613141565b602060405180830381600087803b158015611eba57600080fd5b505af1925050508015611eeb57506040513d601f19601f82011682018060405250810190611ee8919061292a565b60015b611f6e573d8060008114611f1b576040519150601f19603f3d011682016040523d82523d6000602084013e611f20565b606091505b50600081511415611f66576040517f08c379a0000000000000000000000000000000000000000000000000000000008152600401611f5d9061320e565b60405180910390fd5b805181602001fd5b63150b7a0260e01b7bffffffffffffffffffffffffffffffffffffffffffffffffffffffff1916817bffffffffffffffffffffffffffffffffffffffffffffffffffffffff191614915050611fc3565b600190505b949350505050565b600080823b905060008111915050919050565b828054828255906000526020600020908101928215612057579160200282015b828111156120565782518260006101000a81548173ffffffffffffffffffffffffffffffffffffffff021916908373ffffffffffffffffffffffffffffffffffffffff16021790555091602001919060010190611ffe565b5b5090506120649190612175565b5090565b8280548282559060005260206000209081019282156120b7579160200282015b828111156120b65782518290805190602001906120a6929190612192565b5091602001919060010190612088565b5b5090506120c49190612218565b5090565b828054828255906000526020600020908101928215612117579160200282015b8281111561211657825182908051906020019061210692919061223c565b50916020019190600101906120e8565b5b50905061212491906122c2565b5090565b828054828255906000526020600020908101928215612164579160200282015b82811115612163578251825591602001919060010190612148565b5b5090506121719190612175565b5090565b5b8082111561218e576000816000905550600101612176565b5090565b82805461219e90613723565b90600052602060002090601f0160209004810192826121c05760008555612207565b82601f106121d957805160ff1916838001178555612207565b82800160010185558215612207579182015b828111156122065782518255916020019190600101906121eb565b5b5090506122149190612175565b5090565b5b80821115612238576000818161222f91906122e6565b50600101612219565b5090565b82805461224890613723565b90600052602060002090601f01602090048101928261226a57600085556122b1565b82601f1061228357805160ff19168380011785556122b1565b828001600101855582156122b1579182015b828111156122b0578251825591602001919060010190612295565b5b5090506122be9190612175565b5090565b5b808211156122e257600081816122d99190612326565b506001016122c3565b5090565b5080546122f290613723565b6000825580601f106123045750612323565b601f0160209004906000526020600020908101906123229190612175565b5b50565b50805461233290613723565b6000825580601f106123445750612363565b601f0160209004906000526020600020908101906123629190612175565b5b50565b600061237961237484613483565b613452565b9050808382526020820190508260005b858110156123b9578135850161239f8882612642565b845260208401935060208301925050600181019050612389565b5050509392505050565b60006123d66123d1846134af565b613452565b9050808382526020820190508260005b8581101561241657813585016123fc88826126b6565b8452602084019350602083019250506001810190506123e6565b5050509392505050565b600061243361242e846134db565b613452565b90508281526020810184848401111561244b57600080fd5b6124568482856136e1565b509392505050565b600061247161246c8461350b565b613452565b90508281526020810184848401111561248957600080fd5b6124948482856136e1565b509392505050565b6000813590506124ab8161389c565b92915050565b6000815190506124c08161389c565b92915050565b60008083601f8401126124d857600080fd5b8235905067ffffffffffffffff8111156124f157600080fd5b60208301915083602082028301111561250957600080fd5b9250929050565b60008083601f84011261252257600080fd5b8235905067ffffffffffffffff81111561253b57600080fd5b60208301915083602082028301111561255357600080fd5b9250929050565b60008083601f84011261256c57600080fd5b8235905067ffffffffffffffff81111561258557600080fd5b60208301915083602082028301111561259d57600080fd5b9250929050565b60008083601f8401126125b657600080fd5b8235905067ffffffffffffffff8111156125cf57600080fd5b6020830191508360208202830111156125e757600080fd5b9250929050565b6000813590506125fd816138b3565b92915050565b600081359050612612816138ca565b92915050565b600081359050612627816138e1565b92915050565b60008151905061263c816138e1565b92915050565b600082601f83011261265357600080fd5b8135612663848260208601612420565b91505092915050565b60008083601f84011261267e57600080fd5b8235905067ffffffffffffffff81111561269757600080fd5b6020830191508360018202830111156126af57600080fd5b9250929050565b600082601f8301126126c757600080fd5b81356126d784826020860161245e565b91505092915050565b6000813590506126ef816138f8565b92915050565b60006020828403121561270757600080fd5b60006127158482850161249c565b91505092915050565b60006020828403121561273057600080fd5b600061273e848285016124b1565b91505092915050565b6000806040838503121561275a57600080fd5b60006127688582860161249c565b92505060206127798582860161249c565b9150509250929050565b60008060006060848603121561279857600080fd5b60006127a68682870161249c565b93505060206127b78682870161249c565b92505060406127c8868287016126e0565b9150509250925092565b600080600080608085870312156127e857600080fd5b60006127f68782880161249c565b94505060206128078782880161249c565b9350506040612818878288016126e0565b925050606085013567ffffffffffffffff81111561283557600080fd5b61284187828801612642565b91505092959194509250565b6000806040838503121561286057600080fd5b600061286e8582860161249c565b925050602061287f858286016125ee565b9150509250929050565b6000806040838503121561289c57600080fd5b60006128aa8582860161249c565b92505060206128bb85828601612603565b9150509250929050565b600080604083850312156128d857600080fd5b60006128e68582860161249c565b92505060206128f7858286016126e0565b9150509250929050565b60006020828403121561291357600080fd5b600061292184828501612618565b91505092915050565b60006020828403121561293c57600080fd5b600061294a8482850161262d565b91505092915050565b60008060008060008060008060008060a08b8d03121561297257600080fd5b60008b013567ffffffffffffffff81111561298c57600080fd5b6129988d828e0161266c565b9a509a505060208b013567ffffffffffffffff8111156129b757600080fd5b6129c38d828e016124c6565b985098505060408b013567ffffffffffffffff8111156129e257600080fd5b6129ee8d828e0161255a565b965096505060608b013567ffffffffffffffff811115612a0d57600080fd5b612a198d828e01612510565b945094505060808b013567ffffffffffffffff811115612a3857600080fd5b612a448d828e016125a4565b92509250509295989b9194979a5092959850565b600060208284031215612a6a57600080fd5b6000612a78848285016126e0565b91505092915050565b612a8a81613639565b82525050565b612a998161364b565b82525050565b612aa881613657565b82525050565b6000612ab98261353b565b612ac38185613551565b9350612ad38185602086016136f0565b612adc8161388b565b840191505092915050565b6000612af282613546565b612afc8185613562565b9350612b0c8185602086016136f0565b612b158161388b565b840191505092915050565b6000612b2b82613546565b612b358185613573565b9350612b458185602086016136f0565b80840191505092915050565b6000612b5e603283613562565b91507f4552433732313a207472616e7366657220746f206e6f6e20455243373231526560008301527f63656976657220696d706c656d656e74657200000000000000000000000000006020830152604082019050919050565b6000612bc4601c83613562565b91507f4552433732313a20746f6b656e20616c7265616479206d696e746564000000006000830152602082019050919050565b6000612c04602483613562565b91507f4552433732313a207472616e7366657220746f20746865207a65726f2061646460008301527f72657373000000000000000000000000000000000000000000000000000000006020830152604082019050919050565b6000612c6a601983613562565b91507f4552433732313a20617070726f766520746f2063616c6c6572000000000000006000830152602082019050919050565b6000612caa602c83613562565b91507f4552433732313a206f70657261746f7220717565727920666f72206e6f6e657860008301527f697374656e7420746f6b656e00000000000000000000000000000000000000006020830152604082019050919050565b6000612d10602083613562565b91507f4552433732313a2063616e6e6f74206d696e7420776974686f757420747970656000830152602082019050919050565b6000612d50603883613562565b91507f4552433732313a20617070726f76652063616c6c6572206973206e6f74206f7760008301527f6e6572206e6f7220617070726f76656420666f7220616c6c00000000000000006020830152604082019050919050565b6000612db6602a83613562565b91507f4552433732313a2062616c616e636520717565727920666f7220746865207a6560008301527f726f2061646472657373000000000000000000000000000000000000000000006020830152604082019050919050565b6000612e1c602983613562565b91507f4552433732313a206f776e657220717565727920666f72206e6f6e657869737460008301527f656e7420746f6b656e00000000000000000000000000000000000000000000006020830152604082019050919050565b6000612e82602083613562565b91507f4552433732313a206d696e7420746f20746865207a65726f20616464726573736000830152602082019050919050565b6000612ec2602c83613562565b91507f4552433732313a20617070726f76656420717565727920666f72206e6f6e657860008301527f697374656e7420746f6b656e00000000000000000000000000000000000000006020830152604082019050919050565b6000612f28602983613562565b91507f4552433732313a207472616e73666572206f6620746f6b656e2074686174206960008301527f73206e6f74206f776e00000000000000000000000000000000000000000000006020830152604082019050919050565b6000612f8e602f83613562565b91507f4552433732314d657461646174613a2055524920717565727920666f72206e6f60008301527f6e6578697374656e7420746f6b656e00000000000000000000000000000000006020830152604082019050919050565b6000612ff4602183613562565b91507f4552433732313a20617070726f76616c20746f2063757272656e74206f776e6560008301527f72000000000000000000000000000000000000000000000000000000000000006020830152604082019050919050565b600061305a603183613562565b91507f4552433732313a207472616e736665722063616c6c6572206973206e6f74206f60008301527f776e6572206e6f7220617070726f7665640000000000000000000000000000006020830152604082019050919050565b60006130c0601983613562565b91507f4d41503a204172726179206c656e6774687320646966666572000000000000006000830152602082019050919050565b6130fc816136ad565b82525050565b600061310e8285612b20565b915061311a8284612b20565b91508190509392505050565b600060208201905061313b6000830184612a81565b92915050565b60006080820190506131566000830187612a81565b6131636020830186612a81565b61317060408301856130f3565b81810360608301526131828184612aae565b905095945050505050565b60006040820190506131a26000830185612a81565b6131af60208301846130f3565b9392505050565b60006020820190506131cb6000830184612a90565b92915050565b60006020820190506131e66000830184612a9f565b92915050565b600060208201905081810360008301526132068184612ae7565b905092915050565b6000602082019050818103600083015261322781612b51565b9050919050565b6000602082019050818103600083015261324781612bb7565b9050919050565b6000602082019050818103600083015261326781612bf7565b9050919050565b6000602082019050818103600083015261328781612c5d565b9050919050565b600060208201905081810360008301526132a781612c9d565b9050919050565b600060208201905081810360008301526132c781612d03565b9050919050565b600060208201905081810360008301526132e781612d43565b9050919050565b6000602082019050818103600083015261330781612da9565b9050919050565b6000602082019050818103600083015261332781612e0f565b9050919050565b6000602082019050818103600083015261334781612e75565b9050919050565b6000602082019050818103600083015261336781612eb5565b9050919050565b6000602082019050818103600083015261338781612f1b565b9050919050565b600060208201905081810360008301526133a781612f81565b9050919050565b600060208201905081810360008301526133c781612fe7565b9050919050565b600060208201905081810360008301526133e78161304d565b9050919050565b60006020820190508181036000830152613407816130b3565b9050919050565b600060208201905061342360008301846130f3565b92915050565b600060408201905061343e60008301856130f3565b61344b60208301846130f3565b9392505050565b6000604051905081810181811067ffffffffffffffff821117156134795761347861385c565b5b8060405250919050565b600067ffffffffffffffff82111561349e5761349d61385c565b5b602082029050602081019050919050565b600067ffffffffffffffff8211156134ca576134c961385c565b5b602082029050602081019050919050565b600067ffffffffffffffff8211156134f6576134f561385c565b5b601f19601f8301169050602081019050919050565b600067ffffffffffffffff8211156135265761352561385c565b5b601f19601f8301169050602081019050919050565b600081519050919050565b600081519050919050565b600082825260208201905092915050565b600082825260208201905092915050565b600081905092915050565b6000613589826136ad565b9150613594836136ad565b9250827fffffffffffffffffffffffffffffffffffffffffffffffffffffffffffffffff038211156135c9576135c86137cf565b5b828201905092915050565b60006135df826136ad565b91506135ea836136ad565b9250826135fa576135f96137fe565b5b828204905092915050565b6000613610826136ad565b915061361b836136ad565b92508282101561362e5761362d6137cf565b5b828203905092915050565b60006136448261368d565b9050919050565b60008115159050919050565b6000819050919050565b60007fffffffff0000000000000000000000000000000000000000000000000000000082169050919050565b600073ffffffffffffffffffffffffffffffffffffffff82169050919050565b6000819050919050565b60006136c4368484612366565b905092915050565b60006136d93684846123c3565b905092915050565b82818337600083830152505050565b60005b8381101561370e5780820151818401526020810190506136f3565b8381111561371d576000848401525b50505050565b6000600282049050600182168061373b57607f821691505b6020821081141561374f5761374e61382d565b5b50919050565b6000613760826136ad565b91507fffffffffffffffffffffffffffffffffffffffffffffffffffffffffffffffff821415613793576137926137cf565b5b600182019050919050565b60006137a9826136ad565b91506137b4836136ad565b9250826137c4576137c36137fe565b5b828206905092915050565b7f4e487b7100000000000000000000000000000000000000000000000000000000600052601160045260246000fd5b7f4e487b7100000000000000000000000000000000000000000000000000000000600052601260045260246000fd5b7f4e487b7100000000000000000000000000000000000000000000000000000000600052602260045260246000fd5b7f4e487b7100000000000000000000000000000000000000000000000000000000600052604160045260246000fd5b6000601f19601f8301169050919050565b6138a581613639565b81146138b057600080fd5b50565b6138bc8161364b565b81146138c757600080fd5b50565b6138d381613657565b81146138de57600080fd5b50565b6138ea81613661565b81146138f557600080fd5b50565b613901816136ad565b811461390c57600080fd5b5056fea264697066735822122008c767a628401d2a6ebbeef6630eaee09b90cd79373cd183ef05db90c9ec701964736f6c63430008000033",
  "linkReferences": {},
  "deployedLinkReferences": {}
}